:040000000C946E00EE
:100004000C94A5010C94B2010C9400000C94000013
:100014000C9400000C9400000C9400000C9400005C
:100024000C9400000C9400000C9400000C9400004C
:100034000C9400000C9400000C9400000C9400003C
:100044000C9400000C9400000C9400000C9400002C
:100054000C9400000C9400000C9400000C94FD021D
:100064000C9400001027E80364000A00010000104B
:100074000001100001000000000000000000526FA9
:100084006F6D20656D7074792100253032753A25C5
:1000940030327500253032752F253032752F2530DA
:1000A40032750053756D2070656F706C653A00256C
:1000B400750046756C6C2070656F706C653A000055
:1000C400070080C0080005007A0001000203C40094
:1000D40002001003C6000000F894EE27EFBBF1E025
:1000E400F5BFE5BF8DE0A2E0BB27ED938A95E9F764
:1000F40080E098E0A0E0B1E0ED930197E9F7E8EC47
:10010400F0E085919591009761F0A591B5910590E6
:100114001590BF01F00105900D920197E1F7FB01E5
:10012400F0CFE0E0EEBBEFEFEDBFE8E0EEBFC0E004
:10013400D3E00C94F501C0D61A2F0C813D81E32F36
:10014400EE0FE00FE093BA00E9D5E12FF0E06F2F56
:10015400660F660B762FA0E0B4E284EF90E014D72C
:10016400E051F04060407040DF01CB01E2E0F0E09C
:1001740060E070E009D7E093B800E5E4E093BC00E8
:100184004FC0E091BC00E16410C0E091BC00EE7F80
:100194000CC0E4EAE093BC00E091BC00E078E1F339
:1001A400E091B900E87F0895E4E9E093BC00089584
:1001B400BBD50093BB00E4E8E093BC00E091BC0035
:1001C400E078E1F3E091B900E87F0C94FE041A931F
:1001D4001A2F1093BB00E4E8E093BC00E091BC004C
:1001E400E078E1F3E091B900E87F0C94D50464D69B
:1001F4008D012C813D8133244424301641066CF456
:10020400E32DF42DE20FF31FA081E1DFE83229F49E
:10021400E1E0F0E03E0E4F1EF0CFE091B900E87F40
:1002240052D62696089585D511F0E1E057C05A9329
:10023400A0E0BEDFE83111F0E1E050C03A932A9328
:10024400D801D5DFE83211F0E1E048C044C071D5EF
:1002540011F0E1E043C05A93A1E0AADFE03411F0C9
:10026400E1E03CC033244424F80131973E164F06A4
:10027400E4F4E4ECE093BC00E091BC00E078E1F34A
:10028400E091B900E87FE03511F0E1E027C0A32D4B
:10029400B42DA20FB31FE091BB00EC93E32DF42D1A
:1002A40031963E2E4F2E3197DFCFE4E8E093BC0029
:1002B400E091BC00E078E1F3E091B900E87FE83533
:1002C40011F0E1E00BC0F8013197E20FF31FDF01F9
:1002D400E091BB00EC9368DF54DFE0E0F2D52996AF
:1002E4000895219AE0E0E09380002CD5E2602FD5B8
:1002F400E86128D5E0682BD5E260E0938100E3E073
:10030400E0938900E8EEE0938800ECE9E09387004D
:10031400E0E4E093860008951A930A938D01A5E121
:10032400A09FF001A19FF00DE851FC4F8F0105152E
:10033400160539F010938900E0938800502E612E41
:1003440001C04EC04DC008D58E2E00240B140C04E1
:1003540021F4002409140A0409F001C00CD50DC0CD
:10036400FBD47E2E00240B140C0429F4EAE0F0E004
:10037400E915FA0509F001C0FED4E991EFBFF9913E
:10038400E991B991A9919991899179916991F9909A
:100394001990099018951A930A938D01E0E0E0935F
:1003A4000303E0EDEA93E3E0F3E0FA93EA93A1E0D8
:1003B400B0E039DFE1EDEA931A930A93A7E0B0E0E5
:1003C40046DF0EC01A930A938D01F80195D5AAE071
:1003D400B0E09BD5DF01F801EF70F070EA0FFB1F6E
:1003E400099119910895279752985398E0916900BB
:1003F400E260E0936900E0916900E860E0936900DD
:10040400E89AE99A7894E1E0EA93EA93A0EA93DE21
:10041400A4E6B0E063D065DFE7E2EA93A0E1C5D2E9
:10042400B1D4E2E8F0E0B3D4259A2D9ADE01B3DF2B
:1004340010E0173080F4B1D4EA0FFB1FFF93EF9361
:10044400ACD4AE0FBF1FAC91BB27BCDFAF91BF9143
:10045400EC931F5FEECFA5D4882089F0A0E2B3E02F
:10046400ADD5772059F0E1E0F0E09E0EAF1E8AD4BE
:10047400E7EAF0E08CD4CAD4772401C0882477203A
:1004840081F0A0E2B3E09AD5882051F0E92DFA2D4D
:1004940031979E2EAF2E76D4E7EAF0E078D4B6D426
:1004A4007724002409140A0411F0C2D428F4E1E0EA
:1004B400F0E0EB15FC0509F00EC0A0EDB7E07ED529
:1004C400BB24CC24A0E0B0E027DFB2D420F45AD47B
:1004D400E6EBF0E05CD465D4A9CFFFCFEDD49D0169
:1004E400F19AE7E0E0930203E0E0E0930C03E09389
:1004F4000D03E0930E03E0930F0344984598E093B3
:10050400BC000CD4F901A0EABFE007D51E2F1830B7
:1005140008F018501093B800E091BC00E078E5644E
:10052400E093BC00D0D4249608952497C3D41A2F02
:100534002A853B850C854D855E85F19B58C0EF85EA
:10054400EE0FE09304034093050350930603E0E0A9
:10055400E0930003009307032093080330930903F7
:10056400E093010310930A03E6E0E0930203789416
:10057400003069F0042E052AD1F1103021F0002456
:100584000216030609F001C032C0F09A0BC0103005
:1005940031F1022E032A59F1E0910403E160E09362
:1005A4000403F098F198E091BC00EF70E06AE093E6
:1005B400BC00E0E2F1EA67E070E03FD4F1990FC0DB
:1005C400EE81FF816885798531976040704035D42C
:1005D40029F4E5E0E0930203F19A09C0EFCFA0917A
:1005E4000203E0E0EA17E1E009F0EE2701C0E0E0F1
:1005F40068D4609608950A921A92FA926A937A934A
:100604008A939A93AA93BA93EA93FA93EFB7EA93E5
:100614005A934A933A932A931A930A931091010393
:10062400009100033091070320910203E12FA09170
:100634000803B0910903F0E0EA0FFB1FAF01E0915A
:10064400B900E87FE83011F420E002C0E03119F489
:10065400E091040310C0E83111F0E83241F50317CA
:1006640098F4E02F0F5FA0910503B0910603F0E02A
:10067400AE0FBF1FEC91E093BB00E091BC00EF70A4
:10068400E068E093BC0012C0E0910A031E1768F40E
:10069400E0910403E160E0930403F098E091BC006E
:1006A400EF70E06AE093BC000DC138C00BC1E035C7
:1006B40031F4E091BB00DA01EC931F5F02C0E03437
:1006C40089F4E0910A03E1501E1728F0E091BC0080
:1006D400EF70E06804C0E091BC00EF70E06CE09360
:1006E400BC00F0C0E83531F4E091BB00DA01EC93D2
:1006F4001F5F02C0E03209F402C0E03309F402C013
:10070400E83469F4203051F4F09B03C0031728F057
:1007140005C0E0910A031E1708F424E0CCC0E833B6
:1007240031F422E0E091BC00EF70E068C8C0E83624
:1007340011F0E83711F422E005C0E03611F0E0379B
:10074400A1F420E010E0F098E0910B03E03031F4E4
:1007540021E0E091BC00EF70E06804C0E091BC00CF
:10076400EF70E06CE093BC00ADC0E03811F0E0390C
:1007740039F5F09B02C021E09EC0E091BB00DA0194
:10078400EC931F5FE0910B031E17C0F4E0910C0380
:10079400F0910D03309711F426E08DC0A0E0E091B4
:1007A4000C03F0910D030995E03039F0E091BC00A1
:1007B400EF70E06CE093BC0085C001C0F09A02C009
:1007C400E83809F402C0E83939F4E091BC00EF706C
:1007D400E068E093BC0076C0E03AB1F4E091BC007C
:1007E400EF70E06CE093BC00F19AE0910C03F0919F
:1007F4000D03309739F0A1E0E0910C03F0910D0363
:10080400099501C026E05EC0E03B11F422E002C07D
:10081400E83AB1F4E0910E03F0910F03309759F0E8
:10082400A0E0E0910E03F0910F0309953E2FE03014
:1008340011F020E002C026E03EC000E0F09802C0C3
:10084400E83BF9F4F09B02C021E035C0E02F0F5FD4
:10085400A0910503B0910603F0E0AE0FBF1FEC9129
:10086400E093BB00031728F4E091BC00EF70E06C48
:1008740005C0F09AE091BC00EF70E068E093BC0022
:1008840021C0E03C11F0E83C99F4E091BC00EF7029
:10089400E06CE093BC00E0910E03F0910F033097FD
:1008A40031F0A1E0E0910E03F0910F03099509C026
:1008B400E03041F423E0E091BC00EF70E06DE093A0
:1008C400BC00F19A109301030093000320930203E8
:1008D40030930703099119912991399149915991BB
:1008E400E991EFBFF991E991B991A9919991899110
:1008F40079916991F990199009901895A3D2A091D2
:100904001503A7D250C09ED2E095A0911503EA2307
:10091400A5D249C01A931A2FE0911403EA93E091E7
:100924001503EF70AE2FE12FE07F93D2A4E0E6DF52
:10093400A4E038C0AA93A881EDDFE881E295E883BA
:10094400A881E8DF85E88A95F1F721960895ECD12E
:10095400E12FF0E0E05FFC4FE081E00FAE2FEADF33
:10096400E02ED12E49C0A2E07DD2ACE0E3DFA1E0CD
:1009740079D2E0E0DE2EEE2E08951A931A2F1A3063
:1009840021F0E0911603EE1638F0E0E0EA93D394F8
:10099400AD2DDDDF1A3039F0E394A1E0AFDFA12FF4
:1009A400C9DFA1E0B0DF19910895BED1009314030B
:1009B400E0911403EA93E8E051D210931603E12F77
:1009C400E058E0931203E12FE054E0931303A4E111
:1009D400B0E0F4D24BD24AD249D2A0E29BDF88ECF9
:1009E40090E00197F1F7A8E2A5DFA4E0A3DFA5E872
:1009F400A1DFA6E09FDFB7DF198108812396089560
:100A0400BA93AA93A991B991EE27FF276D91662312
:100A140011F03196FBCF0895BA93AA93AA27BB2766
:100A2400E991F9910590002011F01196FBCFFD0199
:100A34000895AA93E981EA93FE013196FA93EA9321
:100A4400E1E0EA93E0E0F0E0FA93EA93A0E06DDD00
:100A540022960895BA93AA9326972CD210E0AC85D7
:100A6400BD85E0E0F0E0ED93FC93EA89FB893196E3
:100A7400EA8BFB8B3197E4912E2FE03009F40BC104
:100A8400E12FE03031F4253211F411E001C0F5D149
:100A940001C1E130A1F4253211F4EFD1FAC012E022
:100AA40040E000E02D3211F401E0F4C02B3211F4E7
:100AB4004BE2F0C0203211F440E2ECC002C0E2305C
:100AC40039F450E013E0203311F40068E3C003C0AC
:100AD400E33009F0DFC0203310F02A3308F007C0F8
:100AE400AAE05A9F502DE22FE0535E0FD3C0E22FAD
:100AF400E33639F4C9D1E889F989A481AA93CAD122
:100B0400C8C0E33729F4C0D1CBD17ADF1E2F07C088
:100B1400E03749F4B9D1C4D17FDF1E2F08600260E9
:100B24000F7730E03AC0E43611F0E93611F404608E
:100B340002C0E53731F4E8E6F0E0EE83FF8315E028
:100B44000CC0E83511F4086003C0E83709F0A1C00F
:100B5400E2E7F0E0EE83FF8314E002FF15C094D1D6
:100B6400A889B9891496ED91FD91EA87FB87AB8535
:100B7400AA2322F4ADD1EA87FB874DE2403011F07D
:100B84001F5F01C00B7F09C07FD1A889B989149662
:100B9400ED91FC911197EA87FB8700FD10C01517B2
:100BA40070F407FF08C002FF04C00B7F242F11500C
:100BB40001C020E301C020E260D15150F0CF312FB9
:100BC40001FF16C0303099F003FF06C0EE81FF81AB
:100BD4002591EE83FF8305C0AE81BF812D91AE8345
:100BE400BF834BD1503009F051503150EBCF48C046
:100BF40020E3EE81FF81D9D1E887F987EE81FF8177
:100C04003296EE83FF83E885F985AA85BB85AE1706
:100C1400BF0750F02F5FA885B985EA85FB85EA1BDD
:100C2400FB0BEA87FB87EFCF2A3328F003FF02C0D0
:100C3400295F01C0295D04FD19C0213320F4A88572
:100C4400B985119709F409C0531710F000FF01C0CA
:100C540011C020E207FF0AC020E3006102FF06C0C2
:100C64000B7F4A9317D1503009F0515006D15030C0
:100C740009F051503150A885B985129708F0B8CFC2
:100C840000FF07C0503029F05150E0E2EA9302D14E
:100C9400F9CF10E0EACEAC85BD85ED91FD9111D17F
:100CA4006496089509D18D013C81A32F66DED80195
:100CB400ED91FD913196FE93EE9305D1259608951D
:100CC400FF92F82E2697F8D0FE010024EF0DF01DB8
:100CD40034852585DE0116960024AF0DB01D8D01E7
:100CE400E0E0EE83EF83E887E9872A93A32F2FDEE2
:100CF400DE011A960024AF0DB01DED91FD91FA931B
:100D0400EA931A930A93E4E5F6E0FA93EA93DE0190
:100D14001A96A0DED8D02A96FF900895E091B900E3
:100D2400EC7FE093B90008951A930A931A2F0A816D
:100D34000895C0D08D012E813F81588526DA29DAA5
:100D4400E8300895E0938100E09180000895E093F5
:100D54008000E091810008950A921A92FA926A93AF
:100D64007A938A939A93AA93BA93EA93FA93EFB7EE
:100D7400EA93E1E00895E1E0F0E0BE2ECF2EA4EB8B
:100D8400B0E0CACAF0DDE0E0EA93EA930895FA938A
:100D9400EA9380E095DF24960895E12FF0E0DE01E8
:100DA4000895E0E0EA93E1E0EA93EEE8F0E0FA93F4
:100DB400EA93EE81FF2766277727FBD0E985FF2793
:100DC40066277727F6D0EC85FF2766277727F1D0AB
:100DD4008CE076DF6096E6E0EA93E1E0EA93E8E906
:100DE400F0E0FA93EA93E885FF2766277727E1D0B6
:100DF400ED85FF2766277727DCD0EA89FF2766275A
:100E04007727D7D08CE05CDF60960895ECE0EA9316
:100E1400E0E0EA93E3EBF0E0FA93EA93E92DFA2DAC
:100E240066277727C6D084E04BDF28968824089568
:100E3400E9E0F0E0E915FA050895EE83FF83688799
:100E4400798708951A931A2FE0911403EA93E12FF6
:100E54000895EA2BE0931503AE2FEBCDE093150331
:100E6400AE2FE7CD67DDA3E0B0E0A8C0A0E352DD7C
:100E740088EC90E00197F1F708952A93AD85BE853B
:100E8400EF85F88909950895E889F9893497E88BFD
:100E9400F98B0895AD85BE85EF85F8890995089588
:100EA400A889B9891496ED91FD91EE83FF83AE81F3
:100EB400BF8108955A934A933A932A931A930A93B3
:100EC40008955D814C813B812A81198108810895AF
:100ED400F195E195F0400895F09560957095E19550
:100EE400FF4F6F4F7F4F0895B09580959095A195D2
:100EF400BF4F8F4F9F4F0895F695E795F695E79569
:100F0400F695E795F695E7950895FA9FF02DEB9FF2
:100F1400F00DEA9FE02DF10D08950024112490E1D5
:100F2400AA0FBB1F001C111C0E1A1F0A18F40E0E68
:100F34001F1E01C0A1609A9599F7FD01D001089583
:100F44003F934F935F9300241124A00130E2AA0F32
:100F5400BB1F881F991F001C111C441F551F0E1A0C
:100F64001F0A460B570B28F40E0E1F1E461F571F51
:100F740001C0A1603A9559F7FD01BC01D001CA0135
:100F84005F914F913F91089504D0DADF0EF4A4DF0E
:100F94000895E89477FF02C09FDF689497FF04C028
:100FA400A3DF00F8039400FA08950590F491E02D6E
:100FB40008957A936A93FA93EA930895109639F010
:100FC400A89580ED97E00197F1F71197C9F7089577
:00000001FF
